{
  "contractName": "WrappedMillix",
  "abi": [
    {
      "inputs": [],
      "stateMutability": "nonpayable",
      "type": "constructor"
    },
    {
      "anonymous": false,
      "inputs": [
        {
          "indexed": true,
          "internalType": "address",
          "name": "owner",
          "type": "address"
        },
        {
          "indexed": true,
          "internalType": "address",
          "name": "spender",
          "type": "address"
        },
        {
          "indexed": false,
          "internalType": "uint256",
          "name": "value",
          "type": "uint256"
        }
      ],
      "name": "Approval",
      "type": "event"
    },
    {
      "anonymous": false,
      "inputs": [
        {
          "indexed": false,
          "internalType": "string",
          "name": "txhash",
          "type": "string"
        }
      ],
      "name": "MintWrappedMillix",
      "type": "event"
    },
    {
      "anonymous": false,
      "inputs": [
        {
          "indexed": true,
          "internalType": "address",
          "name": "previousOwner",
          "type": "address"
        },
        {
          "indexed": true,
          "internalType": "address",
          "name": "newOwner",
          "type": "address"
        }
      ],
      "name": "OwnershipTransferred",
      "type": "event"
    },
    {
      "anonymous": false,
      "inputs": [
        {
          "indexed": false,
          "internalType": "address",
          "name": "account",
          "type": "address"
        }
      ],
      "name": "Paused",
      "type": "event"
    },
    {
      "anonymous": false,
      "inputs": [
        {
          "indexed": true,
          "internalType": "address",
          "name": "from",
          "type": "address"
        },
        {
          "indexed": true,
          "internalType": "address",
          "name": "to",
          "type": "address"
        },
        {
          "indexed": false,
          "internalType": "uint256",
          "name": "value",
          "type": "uint256"
        }
      ],
      "name": "Transfer",
      "type": "event"
    },
    {
      "anonymous": false,
      "inputs": [
        {
          "indexed": false,
          "internalType": "address",
          "name": "account",
          "type": "address"
        }
      ],
      "name": "Unpaused",
      "type": "event"
    },
    {
      "anonymous": false,
      "inputs": [
        {
          "indexed": true,
          "internalType": "address",
          "name": "from",
          "type": "address"
        },
        {
          "indexed": false,
          "internalType": "string",
          "name": "to",
          "type": "string"
        },
        {
          "indexed": false,
          "internalType": "uint256",
          "name": "amount",
          "type": "uint256"
        }
      ],
      "name": "UnwrapMillix",
      "type": "event"
    },
    {
      "inputs": [],
      "name": "MAX_SUPPLY",
      "outputs": [
        {
          "internalType": "uint256",
          "name": "",
          "type": "uint256"
        }
      ],
      "stateMutability": "view",
      "type": "function",
      "constant": true
    },
    {
      "inputs": [
        {
          "internalType": "address",
          "name": "owner",
          "type": "address"
        },
        {
          "internalType": "address",
          "name": "spender",
          "type": "address"
        }
      ],
      "name": "allowance",
      "outputs": [
        {
          "internalType": "uint256",
          "name": "",
          "type": "uint256"
        }
      ],
      "stateMutability": "view",
      "type": "function",
      "constant": true
    },
    {
      "inputs": [
        {
          "internalType": "address",
          "name": "spender",
          "type": "address"
        },
        {
          "internalType": "uint256",
          "name": "amount",
          "type": "uint256"
        }
      ],
      "name": "approve",
      "outputs": [
        {
          "internalType": "bool",
          "name": "",
          "type": "bool"
        }
      ],
      "stateMutability": "nonpayable",
      "type": "function"
    },
    {
      "inputs": [
        {
          "internalType": "address",
          "name": "account",
          "type": "address"
        }
      ],
      "name": "balanceOf",
      "outputs": [
        {
          "internalType": "uint256",
          "name": "",
          "type": "uint256"
        }
      ],
      "stateMutability": "view",
      "type": "function",
      "constant": true
    },
    {
      "inputs": [
        {
          "internalType": "address",
          "name": "spender",
          "type": "address"
        },
        {
          "internalType": "uint256",
          "name": "subtractedValue",
          "type": "uint256"
        }
      ],
      "name": "decreaseAllowance",
      "outputs": [
        {
          "internalType": "bool",
          "name": "",
          "type": "bool"
        }
      ],
      "stateMutability": "nonpayable",
      "type": "function"
    },
    {
      "inputs": [
        {
          "internalType": "address",
          "name": "spender",
          "type": "address"
        },
        {
          "internalType": "uint256",
          "name": "addedValue",
          "type": "uint256"
        }
      ],
      "name": "increaseAllowance",
      "outputs": [
        {
          "internalType": "bool",
          "name": "",
          "type": "bool"
        }
      ],
      "stateMutability": "nonpayable",
      "type": "function"
    },
    {
      "inputs": [],
      "name": "name",
      "outputs": [
        {
          "internalType": "string",
          "name": "",
          "type": "string"
        }
      ],
      "stateMutability": "view",
      "type": "function",
      "constant": true
    },
    {
      "inputs": [],
      "name": "owner",
      "outputs": [
        {
          "internalType": "address",
          "name": "",
          "type": "address"
        }
      ],
      "stateMutability": "view",
      "type": "function",
      "constant": true
    },
    {
      "inputs": [],
      "name": "paused",
      "outputs": [
        {
          "internalType": "bool",
          "name": "",
          "type": "bool"
        }
      ],
      "stateMutability": "view",
      "type": "function",
      "constant": true
    },
    {
      "inputs": [],
      "name": "renounceOwnership",
      "outputs": [],
      "stateMutability": "nonpayable",
      "type": "function"
    },
    {
      "inputs": [],
      "name": "symbol",
      "outputs": [
        {
          "internalType": "string",
          "name": "",
          "type": "string"
        }
      ],
      "stateMutability": "view",
      "type": "function",
      "constant": true
    },
    {
      "inputs": [],
      "name": "totalSupply",
      "outputs": [
        {
          "internalType": "uint256",
          "name": "",
          "type": "uint256"
        }
      ],
      "stateMutability": "view",
      "type": "function",
      "constant": true
    },
    {
      "inputs": [
        {
          "internalType": "address",
          "name": "to",
          "type": "address"
        },
        {
          "internalType": "uint256",
          "name": "amount",
          "type": "uint256"
        }
      ],
      "name": "transfer",
      "outputs": [
        {
          "internalType": "bool",
          "name": "",
          "type": "bool"
        }
      ],
      "stateMutability": "nonpayable",
      "type": "function"
    },
    {
      "inputs": [
        {
          "internalType": "address",
          "name": "from",
          "type": "address"
        },
        {
          "internalType": "address",
          "name": "to",
          "type": "address"
        },
        {
          "internalType": "uint256",
          "name": "amount",
          "type": "uint256"
        }
      ],
      "name": "transferFrom",
      "outputs": [
        {
          "internalType": "bool",
          "name": "",
          "type": "bool"
        }
      ],
      "stateMutability": "nonpayable",
      "type": "function"
    },
    {
      "inputs": [
        {
          "internalType": "address",
          "name": "newOwner",
          "type": "address"
        }
      ],
      "name": "transferOwnership",
      "outputs": [],
      "stateMutability": "nonpayable",
      "type": "function"
    },
    {
      "inputs": [],
      "name": "decimals",
      "outputs": [
        {
          "internalType": "uint8",
          "name": "",
          "type": "uint8"
        }
      ],
      "stateMutability": "view",
      "type": "function",
      "constant": true
    },
    {
      "inputs": [],
      "name": "pause",
      "outputs": [],
      "stateMutability": "nonpayable",
      "type": "function"
    },
    {
      "inputs": [],
      "name": "unpause",
      "outputs": [],
      "stateMutability": "nonpayable",
      "type": "function"
    },
    {
      "inputs": [
        {
          "internalType": "address",
          "name": "to",
          "type": "address"
        },
        {
          "internalType": "uint256",
          "name": "amount",
          "type": "uint256"
        },
        {
          "internalType": "string",
          "name": "txhash",
          "type": "string"
        }
      ],
      "name": "mint",
      "outputs": [],
      "stateMutability": "nonpayable",
      "type": "function"
    },
    {
      "inputs": [
        {
          "internalType": "uint32",
          "name": "fees",
          "type": "uint32"
        }
      ],
      "name": "setBurnFees",
      "outputs": [],
      "stateMutability": "nonpayable",
      "type": "function"
    },
    {
      "inputs": [],
      "name": "burnFees",
      "outputs": [
        {
          "internalType": "uint32",
          "name": "",
          "type": "uint32"
        }
      ],
      "stateMutability": "view",
      "type": "function",
      "constant": true
    },
    {
      "inputs": [
        {
          "internalType": "address",
          "name": "addr",
          "type": "address"
        }
      ],
      "name": "isVested",
      "outputs": [
        {
          "internalType": "bool",
          "name": "",
          "type": "bool"
        }
      ],
      "stateMutability": "view",
      "type": "function",
      "constant": true
    },
    {
      "inputs": [
        {
          "internalType": "address",
          "name": "addr",
          "type": "address"
        },
        {
          "internalType": "bool",
          "name": "vested",
          "type": "bool"
        }
      ],
      "name": "setVestingState",
      "outputs": [],
      "stateMutability": "nonpayable",
      "type": "function"
    },
    {
      "inputs": [
        {
          "internalType": "uint256",
          "name": "amount",
          "type": "uint256"
        },
        {
          "internalType": "string",
          "name": "to",
          "type": "string"
        }
      ],
      "name": "unwrap",
      "outputs": [],
      "stateMutability": "payable",
      "type": "function",
      "payable": true
    }
  ],
  "bytecode": "0x6080604052620a1cfc600560156101000a81548163ffffffff021916908363ffffffff1602179055503480156200003557600080fd5b506040518060400160405280600d81526020017f577261707065644d696c6c6978000000000000000000000000000000000000008152506040518060400160405280600481526020017f574d4c58000000000000000000000000000000000000000000000000000000008152508160039081620000b3919062000451565b508060049081620000c5919062000451565b5050506000600560006101000a81548160ff02191690831515021790555062000103620000f76200010960201b60201c565b6200011160201b60201c565b62000538565b600033905090565b6000600560019054906101000a900473ffffffffffffffffffffffffffffffffffffffff16905081600560016101000a81548173ffffffffffffffffffffffffffffffffffffffff021916908373ffffffffffffffffffffffffffffffffffffffff1602179055508173ffffffffffffffffffffffffffffffffffffffff168173ffffffffffffffffffffffffffffffffffffffff167f8be0079c531659141344cd1fd0a4f28419497f9722a3daafe3b4186f6b6457e060405160405180910390a35050565b600081519050919050565b7f4e487b7100000000000000000000000000000000000000000000000000000000600052604160045260246000fd5b7f4e487b7100000000000000000000000000000000000000000000000000000000600052602260045260246000fd5b600060028204905060018216806200025957607f821691505b6020821081036200026f576200026e62000211565b5b50919050565b60008190508160005260206000209050919050565b60006020601f8301049050919050565b600082821b905092915050565b600060088302620002d97fffffffffffffffffffffffffffffffffffffffffffffffffffffffffffffffff826200029a565b620002e586836200029a565b95508019841693508086168417925050509392505050565b6000819050919050565b6000819050919050565b6000620003326200032c6200032684620002fd565b62000307565b620002fd565b9050919050565b6000819050919050565b6200034e8362000311565b620003666200035d8262000339565b848454620002a7565b825550505050565b600090565b6200037d6200036e565b6200038a81848462000343565b505050565b5b81811015620003b257620003a660008262000373565b60018101905062000390565b5050565b601f8211156200040157620003cb8162000275565b620003d6846200028a565b81016020851015620003e6578190505b620003fe620003f5856200028a565b8301826200038f565b50505b505050565b600082821c905092915050565b6000620004266000198460080262000406565b1980831691505092915050565b600062000441838362000413565b9150826002028217905092915050565b6200045c82620001d7565b67ffffffffffffffff811115620004785762000477620001e2565b5b62000484825462000240565b62000491828285620003b6565b600060209050601f831160018114620004c95760008415620004b4578287015190505b620004c0858262000433565b86555062000530565b601f198416620004d98662000275565b60005b828110156200050357848901518255600182019150602085019450602081019050620004dc565b868310156200052357848901516200051f601f89168262000413565b8355505b6001600288020188555050505b505050505050565b61294380620005486000396000f3fe60806040526004361061014b5760003560e01c806370a08231116100b657806395d89b411161006f57806395d89b4114610461578063a457c2d71461048c578063a9059cbb146104c9578063d3fc986414610506578063dd62ed3e1461052f578063f2fde38b1461056c5761014b565b806370a0823114610365578063715018a6146103a2578063721e602a146103b9578063760a2e8a146103e25780638456cb591461041f5780638da5cb5b146104365761014b565b8063313ce56711610108578063313ce5671461026557806332cb6b0c1461029057806339509351146102bb5780633f4ba83a146102f857806340f6ac311461030f5780635c975abb1461033a5761014b565b806306fdde0314610150578063095ea7b31461017b5780630fae7eb6146101b857806318160ddd146101e157806323b872dd1461020c578063307cf63f14610249575b600080fd5b34801561015c57600080fd5b50610165610595565b604051610172919061189d565b60405180910390f35b34801561018757600080fd5b506101a2600480360381019061019d9190611967565b610627565b6040516101af91906119c2565b60405180910390f35b3480156101c457600080fd5b506101df60048036038101906101da9190611a19565b61064a565b005b3480156101ed57600080fd5b506101f66106c0565b6040516102039190611a55565b60405180910390f35b34801561021857600080fd5b50610233600480360381019061022e9190611a70565b6106ca565b60405161024091906119c2565b60405180910390f35b610263600480360381019061025e9190611b28565b6106f9565b005b34801561027157600080fd5b5061027a610811565b6040516102879190611ba4565b60405180910390f35b34801561029c57600080fd5b506102a5610816565b6040516102b29190611a55565b60405180910390f35b3480156102c757600080fd5b506102e260048036038101906102dd9190611967565b610821565b6040516102ef91906119c2565b60405180910390f35b34801561030457600080fd5b5061030d610858565b005b34801561031b57600080fd5b5061032461086a565b6040516103319190611bce565b60405180910390f35b34801561034657600080fd5b5061034f610884565b60405161035c91906119c2565b60405180910390f35b34801561037157600080fd5b5061038c60048036038101906103879190611be9565b61089b565b6040516103999190611a55565b60405180910390f35b3480156103ae57600080fd5b506103b76108e3565b005b3480156103c557600080fd5b506103e060048036038101906103db9190611c42565b6108f7565b005b3480156103ee57600080fd5b5061040960048036038101906104049190611be9565b61095a565b60405161041691906119c2565b60405180910390f35b34801561042b57600080fd5b506104346109b0565b005b34801561044257600080fd5b5061044b6109c2565b6040516104589190611c91565b60405180910390f35b34801561046d57600080fd5b506104766109ec565b604051610483919061189d565b60405180910390f35b34801561049857600080fd5b506104b360048036038101906104ae9190611967565b610a7e565b6040516104c091906119c2565b60405180910390f35b3480156104d557600080fd5b506104f060048036038101906104eb9190611967565b610af5565b6040516104fd91906119c2565b60405180910390f35b34801561051257600080fd5b5061052d60048036038101906105289190611ddc565b610b18565b005b34801561053b57600080fd5b5061055660048036038101906105519190611e4b565b610bc1565b6040516105639190611a55565b60405180910390f35b34801561057857600080fd5b50610593600480360381019061058e9190611be9565b610c48565b005b6060600380546105a490611eba565b80601f01602080910402602001604051908101604052809291908181526020018280546105d090611eba565b801561061d5780601f106105f25761010080835404028352916020019161061d565b820191906000526020600020905b81548152906001019060200180831161060057829003601f168201915b5050505050905090565b600080610632610ccb565b905061063f818585610cd3565b600191505092915050565b610652610e9c565b60008163ffffffff16101561069c576040517f08c379a000000000000000000000000000000000000000000000000000000000815260040161069390611f37565b60405180910390fd5b80600560156101000a81548163ffffffff021916908363ffffffff16021790555050565b6000600254905090565b6000806106d5610ccb565b90506106e2858285610f1a565b6106ed858585610fa6565b60019150509392505050565b600560159054906101000a900463ffffffff1663ffffffff16341015610754576040517f08c379a000000000000000000000000000000000000000000000000000000000815260040161074b90611fc9565b60405180910390fd5b61076561075f610ccb565b8461121c565b61076d6109c2565b73ffffffffffffffffffffffffffffffffffffffff166108fc349081150290604051600060405180830381858888f193505050501580156107b2573d6000803e3d6000fd5b506107bb610ccb565b73ffffffffffffffffffffffffffffffffffffffff167fe5aadd65e4d4a654aee8b04b44be1fa1a26deb44951ba912fc6cffd439c2730b83838660405161080493929190612016565b60405180910390a2505050565b600090565b661ff973cafa800081565b60008061082c610ccb565b905061084d81858561083e8589610bc1565b6108489190612077565b610cd3565b600191505092915050565b610860610e9c565b6108686113e9565b565b6000600560159054906101000a900463ffffffff16905090565b6000600560009054906101000a900460ff16905090565b60008060008373ffffffffffffffffffffffffffffffffffffffff1673ffffffffffffffffffffffffffffffffffffffff168152602001908152602001600020549050919050565b6108eb610e9c565b6108f5600061144c565b565b6108ff610e9c565b80600660008473ffffffffffffffffffffffffffffffffffffffff1673ffffffffffffffffffffffffffffffffffffffff16815260200190815260200160002060006101000a81548160ff0219169083151502179055505050565b6000600660008373ffffffffffffffffffffffffffffffffffffffff1673ffffffffffffffffffffffffffffffffffffffff16815260200190815260200160002060009054906101000a900460ff169050919050565b6109b8610e9c565b6109c0611512565b565b6000600560019054906101000a900473ffffffffffffffffffffffffffffffffffffffff16905090565b6060600480546109fb90611eba565b80601f0160208091040260200160405190810160405280929190818152602001828054610a2790611eba565b8015610a745780601f10610a4957610100808354040283529160200191610a74565b820191906000526020600020905b815481529060010190602001808311610a5757829003601f168201915b5050505050905090565b600080610a89610ccb565b90506000610a978286610bc1565b905083811015610adc576040517f08c379a0000000000000000000000000000000000000000000000000000000008152600401610ad39061211d565b60405180910390fd5b610ae98286868403610cd3565b60019250505092915050565b600080610b00610ccb565b9050610b0d818585610fa6565b600191505092915050565b610b20610e9c565b661ff973cafa800082610b316106c0565b610b3b9190612077565b10610b7b576040517f08c379a0000000000000000000000000000000000000000000000000000000008152600401610b72906121af565b60405180910390fd5b610b858383611575565b7f2b1520a218b88043d694007a5f30f20e6682a0723fdc417401eedd86b09000f081604051610bb4919061189d565b60405180910390a1505050565b6000600160008473ffffffffffffffffffffffffffffffffffffffff1673ffffffffffffffffffffffffffffffffffffffff16815260200190815260200160002060008373ffffffffffffffffffffffffffffffffffffffff1673ffffffffffffffffffffffffffffffffffffffff16815260200190815260200160002054905092915050565b610c50610e9c565b600073ffffffffffffffffffffffffffffffffffffffff168173ffffffffffffffffffffffffffffffffffffffff1603610cbf576040517f08c379a0000000000000000000000000000000000000000000000000000000008152600401610cb690612241565b60405180910390fd5b610cc88161144c565b50565b600033905090565b600073ffffffffffffffffffffffffffffffffffffffff168373ffffffffffffffffffffffffffffffffffffffff1603610d42576040517f08c379a0000000000000000000000000000000000000000000000000000000008152600401610d39906122d3565b60405180910390fd5b600073ffffffffffffffffffffffffffffffffffffffff168273ffffffffffffffffffffffffffffffffffffffff1603610db1576040517f08c379a0000000000000000000000000000000000000000000000000000000008152600401610da890612365565b60405180910390fd5b80600160008573ffffffffffffffffffffffffffffffffffffffff1673ffffffffffffffffffffffffffffffffffffffff16815260200190815260200160002060008473ffffffffffffffffffffffffffffffffffffffff1673ffffffffffffffffffffffffffffffffffffffff168152602001908152602001600020819055508173ffffffffffffffffffffffffffffffffffffffff168373ffffffffffffffffffffffffffffffffffffffff167f8c5be1e5ebec7d5bd14f71427d1e84f3dd0314c0f7b2291e5b200ac8c7c3b92583604051610e8f9190611a55565b60405180910390a3505050565b610ea4610ccb565b73ffffffffffffffffffffffffffffffffffffffff16610ec26109c2565b73ffffffffffffffffffffffffffffffffffffffff1614610f18576040517f08c379a0000000000000000000000000000000000000000000000000000000008152600401610f0f906123d1565b60405180910390fd5b565b6000610f268484610bc1565b90507fffffffffffffffffffffffffffffffffffffffffffffffffffffffffffffffff8114610fa05781811015610f92576040517f08c379a0000000000000000000000000000000000000000000000000000000008152600401610f899061243d565b60405180910390fd5b610f9f8484848403610cd3565b5b50505050565b600073ffffffffffffffffffffffffffffffffffffffff168373ffffffffffffffffffffffffffffffffffffffff1603611015576040517f08c379a000000000000000000000000000000000000000000000000000000000815260040161100c906124cf565b60405180910390fd5b600073ffffffffffffffffffffffffffffffffffffffff168273ffffffffffffffffffffffffffffffffffffffff1603611084576040517f08c379a000000000000000000000000000000000000000000000000000000000815260040161107b90612561565b60405180910390fd5b61108f8383836116cb565b60008060008573ffffffffffffffffffffffffffffffffffffffff1673ffffffffffffffffffffffffffffffffffffffff16815260200190815260200160002054905081811015611115576040517f08c379a000000000000000000000000000000000000000000000000000000000815260040161110c906125f3565b60405180910390fd5b8181036000808673ffffffffffffffffffffffffffffffffffffffff1673ffffffffffffffffffffffffffffffffffffffff16815260200190815260200160002081905550816000808573ffffffffffffffffffffffffffffffffffffffff1673ffffffffffffffffffffffffffffffffffffffff168152602001908152602001600020600082825401925050819055508273ffffffffffffffffffffffffffffffffffffffff168473ffffffffffffffffffffffffffffffffffffffff167fddf252ad1be2c89b69c2b068fc378daa952ba7f163c4a11628f55a4df523b3ef846040516112039190611a55565b60405180910390a3611216848484611770565b50505050565b600073ffffffffffffffffffffffffffffffffffffffff168273ffffffffffffffffffffffffffffffffffffffff160361128b576040517f08c379a000000000000000000000000000000000000000000000000000000000815260040161128290612685565b60405180910390fd5b611297826000836116cb565b60008060008473ffffffffffffffffffffffffffffffffffffffff1673ffffffffffffffffffffffffffffffffffffffff1681526020019081526020016000205490508181101561131d576040517f08c379a000000000000000000000000000000000000000000000000000000000815260040161131490612717565b60405180910390fd5b8181036000808573ffffffffffffffffffffffffffffffffffffffff1673ffffffffffffffffffffffffffffffffffffffff1681526020019081526020016000208190555081600260008282540392505081905550600073ffffffffffffffffffffffffffffffffffffffff168373ffffffffffffffffffffffffffffffffffffffff167fddf252ad1be2c89b69c2b068fc378daa952ba7f163c4a11628f55a4df523b3ef846040516113d09190611a55565b60405180910390a36113e483600084611770565b505050565b6113f1611775565b6000600560006101000a81548160ff0219169083151502179055507f5db9ee0a495bf2e6ff9c91a7834c1ba4fdd244a5e8aa4e537bd38aeae4b073aa611435610ccb565b6040516114429190611c91565b60405180910390a1565b6000600560019054906101000a900473ffffffffffffffffffffffffffffffffffffffff16905081600560016101000a81548173ffffffffffffffffffffffffffffffffffffffff021916908373ffffffffffffffffffffffffffffffffffffffff1602179055508173ffffffffffffffffffffffffffffffffffffffff168173ffffffffffffffffffffffffffffffffffffffff167f8be0079c531659141344cd1fd0a4f28419497f9722a3daafe3b4186f6b6457e060405160405180910390a35050565b61151a6117be565b6001600560006101000a81548160ff0219169083151502179055507f62e78cea01bee320cd4e420270b5ea74000d11b0c9f74754ebdbfc544b05a25861155e610ccb565b60405161156b9190611c91565b60405180910390a1565b600073ffffffffffffffffffffffffffffffffffffffff168273ffffffffffffffffffffffffffffffffffffffff16036115e4576040517f08c379a00000000000000000000000000000000000000000000000000000000081526004016115db90612783565b60405180910390fd5b6115f0600083836116cb565b80600260008282546116029190612077565b92505081905550806000808473ffffffffffffffffffffffffffffffffffffffff1673ffffffffffffffffffffffffffffffffffffffff168152602001908152602001600020600082825401925050819055508173ffffffffffffffffffffffffffffffffffffffff16600073ffffffffffffffffffffffffffffffffffffffff167fddf252ad1be2c89b69c2b068fc378daa952ba7f163c4a11628f55a4df523b3ef836040516116b39190611a55565b60405180910390a36116c760008383611770565b5050565b6116d36117be565b600660008473ffffffffffffffffffffffffffffffffffffffff1673ffffffffffffffffffffffffffffffffffffffff16815260200190815260200160002060009054906101000a900460ff1615611760576040517f08c379a000000000000000000000000000000000000000000000000000000000815260040161175790612815565b60405180910390fd5b61176b838383611808565b505050565b505050565b61177d610884565b6117bc576040517f08c379a00000000000000000000000000000000000000000000000000000000081526004016117b390612881565b60405180910390fd5b565b6117c6610884565b15611806576040517f08c379a00000000000000000000000000000000000000000000000000000000081526004016117fd906128ed565b60405180910390fd5b565b505050565b600081519050919050565b600082825260208201905092915050565b60005b8381101561184757808201518184015260208101905061182c565b60008484015250505050565b6000601f19601f8301169050919050565b600061186f8261180d565b6118798185611818565b9350611889818560208601611829565b61189281611853565b840191505092915050565b600060208201905081810360008301526118b78184611864565b905092915050565b6000604051905090565b600080fd5b600080fd5b600073ffffffffffffffffffffffffffffffffffffffff82169050919050565b60006118fe826118d3565b9050919050565b61190e816118f3565b811461191957600080fd5b50565b60008135905061192b81611905565b92915050565b6000819050919050565b61194481611931565b811461194f57600080fd5b50565b6000813590506119618161193b565b92915050565b6000806040838503121561197e5761197d6118c9565b5b600061198c8582860161191c565b925050602061199d85828601611952565b9150509250929050565b60008115159050919050565b6119bc816119a7565b82525050565b60006020820190506119d760008301846119b3565b92915050565b600063ffffffff82169050919050565b6119f6816119dd565b8114611a0157600080fd5b50565b600081359050611a13816119ed565b92915050565b600060208284031215611a2f57611a2e6118c9565b5b6000611a3d84828501611a04565b91505092915050565b611a4f81611931565b82525050565b6000602082019050611a6a6000830184611a46565b92915050565b600080600060608486031215611a8957611a886118c9565b5b6000611a978682870161191c565b9350506020611aa88682870161191c565b9250506040611ab986828701611952565b9150509250925092565b600080fd5b600080fd5b600080fd5b60008083601f840112611ae857611ae7611ac3565b5b8235905067ffffffffffffffff811115611b0557611b04611ac8565b5b602083019150836001820283011115611b2157611b20611acd565b5b9250929050565b600080600060408486031215611b4157611b406118c9565b5b6000611b4f86828701611952565b935050602084013567ffffffffffffffff811115611b7057611b6f6118ce565b5b611b7c86828701611ad2565b92509250509250925092565b600060ff82169050919050565b611b9e81611b88565b82525050565b6000602082019050611bb96000830184611b95565b92915050565b611bc8816119dd565b82525050565b6000602082019050611be36000830184611bbf565b92915050565b600060208284031215611bff57611bfe6118c9565b5b6000611c0d8482850161191c565b91505092915050565b611c1f816119a7565b8114611c2a57600080fd5b50565b600081359050611c3c81611c16565b92915050565b60008060408385031215611c5957611c586118c9565b5b6000611c678582860161191c565b9250506020611c7885828601611c2d565b9150509250929050565b611c8b816118f3565b82525050565b6000602082019050611ca66000830184611c82565b92915050565b600080fd5b7f4e487b7100000000000000000000000000000000000000000000000000000000600052604160045260246000fd5b611ce982611853565b810181811067ffffffffffffffff82111715611d0857611d07611cb1565b5b80604052505050565b6000611d1b6118bf565b9050611d278282611ce0565b919050565b600067ffffffffffffffff821115611d4757611d46611cb1565b5b611d5082611853565b9050602081019050919050565b82818337600083830152505050565b6000611d7f611d7a84611d2c565b611d11565b905082815260208101848484011115611d9b57611d9a611cac565b5b611da6848285611d5d565b509392505050565b600082601f830112611dc357611dc2611ac3565b5b8135611dd3848260208601611d6c565b91505092915050565b600080600060608486031215611df557611df46118c9565b5b6000611e038682870161191c565b9350506020611e1486828701611952565b925050604084013567ffffffffffffffff811115611e3557611e346118ce565b5b611e4186828701611dae565b9150509250925092565b60008060408385031215611e6257611e616118c9565b5b6000611e708582860161191c565b9250506020611e818582860161191c565b9150509250929050565b7f4e487b7100000000000000000000000000000000000000000000000000000000600052602260045260246000fd5b60006002820490506001821680611ed257607f821691505b602082108103611ee557611ee4611e8b565b5b50919050565b7f6275726e20666565732063616e6e6f74206265206e6567617469766500000000600082015250565b6000611f21601c83611818565b9150611f2c82611eeb565b602082019050919050565b60006020820190508181036000830152611f5081611f14565b9050919050565b7f7472616e73616374696f6e2076616c756520646f6573206e6f7420636f76657260008201527f20746865204d4c5820756e777261702066656573000000000000000000000000602082015250565b6000611fb3603483611818565b9150611fbe82611f57565b604082019050919050565b60006020820190508181036000830152611fe281611fa6565b9050919050565b6000611ff58385611818565b9350612002838584611d5d565b61200b83611853565b840190509392505050565b60006040820190508181036000830152612031818587611fe9565b90506120406020830184611a46565b949350505050565b7f4e487b7100000000000000000000000000000000000000000000000000000000600052601160045260246000fd5b600061208282611931565b915061208d83611931565b92508282019050808211156120a5576120a4612048565b5b92915050565b7f45524332303a2064656372656173656420616c6c6f77616e63652062656c6f7760008201527f207a65726f000000000000000000000000000000000000000000000000000000602082015250565b6000612107602583611818565b9150612112826120ab565b604082019050919050565b60006020820190508181036000830152612136816120fa565b9050919050565b7f746f74616c20737570706c792063616e6e6f742062652067726561746572207460008201527f68616e2039653135000000000000000000000000000000000000000000000000602082015250565b6000612199602883611818565b91506121a48261213d565b604082019050919050565b600060208201905081810360008301526121c88161218c565b9050919050565b7f4f776e61626c653a206e6577206f776e657220697320746865207a65726f206160008201527f6464726573730000000000000000000000000000000000000000000000000000602082015250565b600061222b602683611818565b9150612236826121cf565b604082019050919050565b6000602082019050818103600083015261225a8161221e565b9050919050565b7f45524332303a20617070726f76652066726f6d20746865207a65726f2061646460008201527f7265737300000000000000000000000000000000000000000000000000000000602082015250565b60006122bd602483611818565b91506122c882612261565b604082019050919050565b600060208201905081810360008301526122ec816122b0565b9050919050565b7f45524332303a20617070726f766520746f20746865207a65726f20616464726560008201527f7373000000000000000000000000000000000000000000000000000000000000602082015250565b600061234f602283611818565b915061235a826122f3565b604082019050919050565b6000602082019050818103600083015261237e81612342565b9050919050565b7f4f776e61626c653a2063616c6c6572206973206e6f7420746865206f776e6572600082015250565b60006123bb602083611818565b91506123c682612385565b602082019050919050565b600060208201905081810360008301526123ea816123ae565b9050919050565b7f45524332303a20696e73756666696369656e7420616c6c6f77616e6365000000600082015250565b6000612427601d83611818565b9150612432826123f1565b602082019050919050565b600060208201905081810360008301526124568161241a565b9050919050565b7f45524332303a207472616e736665722066726f6d20746865207a65726f20616460008201527f6472657373000000000000000000000000000000000000000000000000000000602082015250565b60006124b9602583611818565b91506124c48261245d565b604082019050919050565b600060208201905081810360008301526124e8816124ac565b9050919050565b7f45524332303a207472616e7366657220746f20746865207a65726f206164647260008201527f6573730000000000000000000000000000000000000000000000000000000000602082015250565b600061254b602383611818565b9150612556826124ef565b604082019050919050565b6000602082019050818103600083015261257a8161253e565b9050919050565b7f45524332303a207472616e7366657220616d6f756e742065786365656473206260008201527f616c616e63650000000000000000000000000000000000000000000000000000602082015250565b60006125dd602683611818565b91506125e882612581565b604082019050919050565b6000602082019050818103600083015261260c816125d0565b9050919050565b7f45524332303a206275726e2066726f6d20746865207a65726f2061646472657360008201527f7300000000000000000000000000000000000000000000000000000000000000602082015250565b600061266f602183611818565b915061267a82612613565b604082019050919050565b6000602082019050818103600083015261269e81612662565b9050919050565b7f45524332303a206275726e20616d6f756e7420657863656564732062616c616e60008201527f6365000000000000000000000000000000000000000000000000000000000000602082015250565b6000612701602283611818565b915061270c826126a5565b604082019050919050565b60006020820190508181036000830152612730816126f4565b9050919050565b7f45524332303a206d696e7420746f20746865207a65726f206164647265737300600082015250565b600061276d601f83611818565b915061277882612737565b602082019050919050565b6000602082019050818103600083015261279c81612760565b9050919050565b7f616464726573732066726f6d20697320696e20746865206c697374206f66207660008201527f657374696e672061646472657373657300000000000000000000000000000000602082015250565b60006127ff603083611818565b915061280a826127a3565b604082019050919050565b6000602082019050818103600083015261282e816127f2565b9050919050565b7f5061757361626c653a206e6f7420706175736564000000000000000000000000600082015250565b600061286b601483611818565b915061287682612835565b602082019050919050565b6000602082019050818103600083015261289a8161285e565b9050919050565b7f5061757361626c653a2070617573656400000000000000000000000000000000600082015250565b60006128d7601083611818565b91506128e2826128a1565b602082019050919050565b60006020820190508181036000830152612906816128ca565b905091905056fea26469706673582212208f2ac657bb6103bb2930b08add291d36d900bceb3bc6a59fe5809ec277cae2fd64736f6c63430008110033",
  "immutableReferences": {},
  "source": "// SPDX-License-Identifier: MIT\npragma solidity ^0.8.9;\n\nimport \"@openzeppelin/contracts/token/ERC20/ERC20.sol\";\nimport \"@openzeppelin/contracts/security/Pausable.sol\";\nimport \"@openzeppelin/contracts/access/Ownable.sol\";\n\ninterface IMillixBridge {\n    /**\n     * @dev Emitted when `amount` tokens are moved from account (`from`) to millix network address (`to`)\n     */\n    event UnwrapMillix(address indexed from, string to, uint256 amount);\n\n    /**\n     * @dev Emitted when `amount` tokens are minted from millix transaction (`txhash`)\n     */\n    event MintWrappedMillix(string txhash);\n\n    function unwrap(uint256 amount, string calldata to) external payable;\n}\n\n/// @custom:security-contact developer@millix.com\ncontract WrappedMillix is ERC20, Pausable, Ownable, IMillixBridge {\n    uint256 public constant MAX_SUPPLY = 9 * 10**15;\n    uint32 private _burnFees = 662780;\n    mapping(address => bool) private _vesting;\n\n    constructor() ERC20(\"WrappedMillix\", \"WMLX\") {}\n\n    function decimals() public view virtual override returns (uint8) {\n        return 0;\n    }\n\n    function pause() public onlyOwner {\n        _pause();\n    }\n\n    function unpause() public onlyOwner {\n        _unpause();\n    }\n\n    function mint(\n        address to,\n        uint256 amount,\n        string memory txhash\n    ) public onlyOwner {\n        require(\n            totalSupply() + amount < MAX_SUPPLY,\n            \"total supply cannot be greater than 9e15\"\n        );\n        _mint(to, amount);\n        emit MintWrappedMillix(txhash);\n    }\n\n    /**\n     * @dev Set current burn fees.\n     */\n    function setBurnFees(uint32 fees) public onlyOwner {\n        require(fees >= 0, \"burn fees cannot be negative\");\n        _burnFees = fees;\n    }\n\n    /**\n     * @dev Returns current burn fees.\n     */\n    function burnFees() public view virtual returns (uint32) {\n        return _burnFees;\n    }\n\n    /**\n     * @dev Returns true if an address is vested\n     */\n    function isVested(address addr) public view returns (bool) {\n        return _vesting[addr];\n    }\n\n    /**\n     * @dev Add address to vesting list\n     */\n    function setVestingState(address addr, bool vested) public onlyOwner {\n        _vesting[addr] = vested;\n    }\n\n    function _beforeTokenTransfer(\n        address from,\n        address to,\n        uint256 amount\n    ) internal override whenNotPaused {\n        require(\n            !_vesting[from],\n            \"address from is in the list of vesting addresses\"\n        );\n        super._beforeTokenTransfer(from, to, amount);\n    }\n\n    function unwrap(uint256 amount, string calldata to) public payable {\n        require(\n            msg.value >= _burnFees,\n            \"transaction value does not cover the MLX unwrap fees\"\n        );\n        _burn(_msgSender(), amount);\n        payable(owner()).transfer(msg.value);\n        emit UnwrapMillix(_msgSender(), to, amount);\n    }\n}\n",
  "sourcePath": "/Users/eriksson/devtools/millix-bridge-contract/contracts/WrappedMillix.sol",
  "compiler": {
    "name": "solc",
    "version": "0.8.17+commit.8df45f5f.Emscripten.clang"
  },
  "schemaVersion": "3.4.10",
  "updatedAt": "2022-12-11T15:41:15.925Z",
  "networkType": "ethereum",
  "devdoc": {
    "custom:security-contact": "developer@millix.com",
    "kind": "dev",
    "methods": {
      "allowance(address,address)": {
        "details": "See {IERC20-allowance}."
      },
      "approve(address,uint256)": {
        "details": "See {IERC20-approve}. NOTE: If `amount` is the maximum `uint256`, the allowance is not updated on `transferFrom`. This is semantically equivalent to an infinite approval. Requirements: - `spender` cannot be the zero address."
      },
      "balanceOf(address)": {
        "details": "See {IERC20-balanceOf}."
      },
      "burnFees()": {
        "details": "Returns current burn fees."
      },
      "decimals()": {
        "details": "Returns the number of decimals used to get its user representation. For example, if `decimals` equals `2`, a balance of `505` tokens should be displayed to a user as `5.05` (`505 / 10 ** 2`). Tokens usually opt for a value of 18, imitating the relationship between Ether and Wei. This is the value {ERC20} uses, unless this function is overridden; NOTE: This information is only used for _display_ purposes: it in no way affects any of the arithmetic of the contract, including {IERC20-balanceOf} and {IERC20-transfer}."
      },
      "decreaseAllowance(address,uint256)": {
        "details": "Atomically decreases the allowance granted to `spender` by the caller. This is an alternative to {approve} that can be used as a mitigation for problems described in {IERC20-approve}. Emits an {Approval} event indicating the updated allowance. Requirements: - `spender` cannot be the zero address. - `spender` must have allowance for the caller of at least `subtractedValue`."
      },
      "increaseAllowance(address,uint256)": {
        "details": "Atomically increases the allowance granted to `spender` by the caller. This is an alternative to {approve} that can be used as a mitigation for problems described in {IERC20-approve}. Emits an {Approval} event indicating the updated allowance. Requirements: - `spender` cannot be the zero address."
      },
      "isVested(address)": {
        "details": "Returns true if an address is vested"
      },
      "name()": {
        "details": "Returns the name of the token."
      },
      "owner()": {
        "details": "Returns the address of the current owner."
      },
      "paused()": {
        "details": "Returns true if the contract is paused, and false otherwise."
      },
      "renounceOwnership()": {
        "details": "Leaves the contract without owner. It will not be possible to call `onlyOwner` functions anymore. Can only be called by the current owner. NOTE: Renouncing ownership will leave the contract without an owner, thereby removing any functionality that is only available to the owner."
      },
      "setBurnFees(uint32)": {
        "details": "Set current burn fees."
      },
      "setVestingState(address,bool)": {
        "details": "Add address to vesting list"
      },
      "symbol()": {
        "details": "Returns the symbol of the token, usually a shorter version of the name."
      },
      "totalSupply()": {
        "details": "See {IERC20-totalSupply}."
      },
      "transfer(address,uint256)": {
        "details": "See {IERC20-transfer}. Requirements: - `to` cannot be the zero address. - the caller must have a balance of at least `amount`."
      },
      "transferFrom(address,address,uint256)": {
        "details": "See {IERC20-transferFrom}. Emits an {Approval} event indicating the updated allowance. This is not required by the EIP. See the note at the beginning of {ERC20}. NOTE: Does not update the allowance if the current allowance is the maximum `uint256`. Requirements: - `from` and `to` cannot be the zero address. - `from` must have a balance of at least `amount`. - the caller must have allowance for ``from``'s tokens of at least `amount`."
      },
      "transferOwnership(address)": {
        "details": "Transfers ownership of the contract to a new account (`newOwner`). Can only be called by the current owner."
      }
    },
    "version": 1
  },
  "userdoc": {
    "kind": "user",
    "methods": {},
    "version": 1
  }
}