{
  "contractName": "WrappedMillix",
  "abi": [
    {
      "inputs": [],
      "stateMutability": "nonpayable",
      "type": "constructor"
    },
    {
      "anonymous": false,
      "inputs": [
        {
          "indexed": true,
          "internalType": "address",
          "name": "owner",
          "type": "address"
        },
        {
          "indexed": true,
          "internalType": "address",
          "name": "spender",
          "type": "address"
        },
        {
          "indexed": false,
          "internalType": "uint256",
          "name": "value",
          "type": "uint256"
        }
      ],
      "name": "Approval",
      "type": "event"
    },
    {
      "anonymous": false,
      "inputs": [
        {
          "indexed": true,
          "internalType": "address",
          "name": "previousOwner",
          "type": "address"
        },
        {
          "indexed": true,
          "internalType": "address",
          "name": "newOwner",
          "type": "address"
        }
      ],
      "name": "OwnershipTransferred",
      "type": "event"
    },
    {
      "anonymous": false,
      "inputs": [
        {
          "indexed": false,
          "internalType": "address",
          "name": "account",
          "type": "address"
        }
      ],
      "name": "Paused",
      "type": "event"
    },
    {
      "anonymous": false,
      "inputs": [
        {
          "indexed": true,
          "internalType": "address",
          "name": "from",
          "type": "address"
        },
        {
          "indexed": true,
          "internalType": "address",
          "name": "to",
          "type": "address"
        },
        {
          "indexed": false,
          "internalType": "uint256",
          "name": "value",
          "type": "uint256"
        }
      ],
      "name": "Transfer",
      "type": "event"
    },
    {
      "anonymous": false,
      "inputs": [
        {
          "indexed": false,
          "internalType": "address",
          "name": "account",
          "type": "address"
        }
      ],
      "name": "Unpaused",
      "type": "event"
    },
    {
      "anonymous": false,
      "inputs": [
        {
          "indexed": true,
          "internalType": "address",
          "name": "from",
          "type": "address"
        },
        {
          "indexed": false,
          "internalType": "string",
          "name": "to",
          "type": "string"
        },
        {
          "indexed": false,
          "internalType": "uint256",
          "name": "amount",
          "type": "uint256"
        }
      ],
      "name": "UnwrapMillix",
      "type": "event"
    },
    {
      "inputs": [],
      "name": "MAX_SUPPLY",
      "outputs": [
        {
          "internalType": "uint256",
          "name": "",
          "type": "uint256"
        }
      ],
      "stateMutability": "view",
      "type": "function",
      "constant": true
    },
    {
      "inputs": [
        {
          "internalType": "address",
          "name": "owner",
          "type": "address"
        },
        {
          "internalType": "address",
          "name": "spender",
          "type": "address"
        }
      ],
      "name": "allowance",
      "outputs": [
        {
          "internalType": "uint256",
          "name": "",
          "type": "uint256"
        }
      ],
      "stateMutability": "view",
      "type": "function",
      "constant": true
    },
    {
      "inputs": [
        {
          "internalType": "address",
          "name": "spender",
          "type": "address"
        },
        {
          "internalType": "uint256",
          "name": "amount",
          "type": "uint256"
        }
      ],
      "name": "approve",
      "outputs": [
        {
          "internalType": "bool",
          "name": "",
          "type": "bool"
        }
      ],
      "stateMutability": "nonpayable",
      "type": "function"
    },
    {
      "inputs": [
        {
          "internalType": "address",
          "name": "account",
          "type": "address"
        }
      ],
      "name": "balanceOf",
      "outputs": [
        {
          "internalType": "uint256",
          "name": "",
          "type": "uint256"
        }
      ],
      "stateMutability": "view",
      "type": "function",
      "constant": true
    },
    {
      "inputs": [
        {
          "internalType": "address",
          "name": "spender",
          "type": "address"
        },
        {
          "internalType": "uint256",
          "name": "subtractedValue",
          "type": "uint256"
        }
      ],
      "name": "decreaseAllowance",
      "outputs": [
        {
          "internalType": "bool",
          "name": "",
          "type": "bool"
        }
      ],
      "stateMutability": "nonpayable",
      "type": "function"
    },
    {
      "inputs": [
        {
          "internalType": "address",
          "name": "spender",
          "type": "address"
        },
        {
          "internalType": "uint256",
          "name": "addedValue",
          "type": "uint256"
        }
      ],
      "name": "increaseAllowance",
      "outputs": [
        {
          "internalType": "bool",
          "name": "",
          "type": "bool"
        }
      ],
      "stateMutability": "nonpayable",
      "type": "function"
    },
    {
      "inputs": [],
      "name": "name",
      "outputs": [
        {
          "internalType": "string",
          "name": "",
          "type": "string"
        }
      ],
      "stateMutability": "view",
      "type": "function",
      "constant": true
    },
    {
      "inputs": [],
      "name": "owner",
      "outputs": [
        {
          "internalType": "address",
          "name": "",
          "type": "address"
        }
      ],
      "stateMutability": "view",
      "type": "function",
      "constant": true
    },
    {
      "inputs": [],
      "name": "paused",
      "outputs": [
        {
          "internalType": "bool",
          "name": "",
          "type": "bool"
        }
      ],
      "stateMutability": "view",
      "type": "function",
      "constant": true
    },
    {
      "inputs": [],
      "name": "renounceOwnership",
      "outputs": [],
      "stateMutability": "nonpayable",
      "type": "function"
    },
    {
      "inputs": [],
      "name": "symbol",
      "outputs": [
        {
          "internalType": "string",
          "name": "",
          "type": "string"
        }
      ],
      "stateMutability": "view",
      "type": "function",
      "constant": true
    },
    {
      "inputs": [],
      "name": "totalSupply",
      "outputs": [
        {
          "internalType": "uint256",
          "name": "",
          "type": "uint256"
        }
      ],
      "stateMutability": "view",
      "type": "function",
      "constant": true
    },
    {
      "inputs": [
        {
          "internalType": "address",
          "name": "to",
          "type": "address"
        },
        {
          "internalType": "uint256",
          "name": "amount",
          "type": "uint256"
        }
      ],
      "name": "transfer",
      "outputs": [
        {
          "internalType": "bool",
          "name": "",
          "type": "bool"
        }
      ],
      "stateMutability": "nonpayable",
      "type": "function"
    },
    {
      "inputs": [
        {
          "internalType": "address",
          "name": "from",
          "type": "address"
        },
        {
          "internalType": "address",
          "name": "to",
          "type": "address"
        },
        {
          "internalType": "uint256",
          "name": "amount",
          "type": "uint256"
        }
      ],
      "name": "transferFrom",
      "outputs": [
        {
          "internalType": "bool",
          "name": "",
          "type": "bool"
        }
      ],
      "stateMutability": "nonpayable",
      "type": "function"
    },
    {
      "inputs": [
        {
          "internalType": "address",
          "name": "newOwner",
          "type": "address"
        }
      ],
      "name": "transferOwnership",
      "outputs": [],
      "stateMutability": "nonpayable",
      "type": "function"
    },
    {
      "inputs": [],
      "name": "decimals",
      "outputs": [
        {
          "internalType": "uint8",
          "name": "",
          "type": "uint8"
        }
      ],
      "stateMutability": "view",
      "type": "function",
      "constant": true
    },
    {
      "inputs": [],
      "name": "pause",
      "outputs": [],
      "stateMutability": "nonpayable",
      "type": "function"
    },
    {
      "inputs": [],
      "name": "unpause",
      "outputs": [],
      "stateMutability": "nonpayable",
      "type": "function"
    },
    {
      "inputs": [
        {
          "internalType": "address",
          "name": "to",
          "type": "address"
        },
        {
          "internalType": "uint256",
          "name": "amount",
          "type": "uint256"
        }
      ],
      "name": "mint",
      "outputs": [],
      "stateMutability": "nonpayable",
      "type": "function"
    },
    {
      "inputs": [
        {
          "internalType": "uint32",
          "name": "fees",
          "type": "uint32"
        }
      ],
      "name": "setBurnFees",
      "outputs": [],
      "stateMutability": "nonpayable",
      "type": "function"
    },
    {
      "inputs": [],
      "name": "burnFees",
      "outputs": [
        {
          "internalType": "uint32",
          "name": "",
          "type": "uint32"
        }
      ],
      "stateMutability": "view",
      "type": "function",
      "constant": true
    },
    {
      "inputs": [
        {
          "internalType": "uint256",
          "name": "amount",
          "type": "uint256"
        },
        {
          "internalType": "string",
          "name": "to",
          "type": "string"
        }
      ],
      "name": "unwrap",
      "outputs": [],
      "stateMutability": "payable",
      "type": "function",
      "payable": true
    }
  ],
  "bytecode": "0x6080604052620a1cfc600560156101000a81548163ffffffff021916908363ffffffff1602179055503480156200003557600080fd5b506040518060400160405280600d81526020017f577261707065644d696c6c6978000000000000000000000000000000000000008152506040518060400160405280600481526020017f574d4c58000000000000000000000000000000000000000000000000000000008152508160039081620000b3919062000451565b508060049081620000c5919062000451565b5050506000600560006101000a81548160ff02191690831515021790555062000103620000f76200010960201b60201c565b6200011160201b60201c565b62000538565b600033905090565b6000600560019054906101000a900473ffffffffffffffffffffffffffffffffffffffff16905081600560016101000a81548173ffffffffffffffffffffffffffffffffffffffff021916908373ffffffffffffffffffffffffffffffffffffffff1602179055508173ffffffffffffffffffffffffffffffffffffffff168173ffffffffffffffffffffffffffffffffffffffff167f8be0079c531659141344cd1fd0a4f28419497f9722a3daafe3b4186f6b6457e060405160405180910390a35050565b600081519050919050565b7f4e487b7100000000000000000000000000000000000000000000000000000000600052604160045260246000fd5b7f4e487b7100000000000000000000000000000000000000000000000000000000600052602260045260246000fd5b600060028204905060018216806200025957607f821691505b6020821081036200026f576200026e62000211565b5b50919050565b60008190508160005260206000209050919050565b60006020601f8301049050919050565b600082821b905092915050565b600060088302620002d97fffffffffffffffffffffffffffffffffffffffffffffffffffffffffffffffff826200029a565b620002e586836200029a565b95508019841693508086168417925050509392505050565b6000819050919050565b6000819050919050565b6000620003326200032c6200032684620002fd565b62000307565b620002fd565b9050919050565b6000819050919050565b6200034e8362000311565b620003666200035d8262000339565b848454620002a7565b825550505050565b600090565b6200037d6200036e565b6200038a81848462000343565b505050565b5b81811015620003b257620003a660008262000373565b60018101905062000390565b5050565b601f8211156200040157620003cb8162000275565b620003d6846200028a565b81016020851015620003e6578190505b620003fe620003f5856200028a565b8301826200038f565b50505b505050565b600082821c905092915050565b6000620004266000198460080262000406565b1980831691505092915050565b600062000441838362000413565b9150826002028217905092915050565b6200045c82620001d7565b67ffffffffffffffff811115620004785762000477620001e2565b5b62000484825462000240565b62000491828285620003b6565b600060209050601f831160018114620004c95760008415620004b4578287015190505b620004c0858262000433565b86555062000530565b601f198416620004d98662000275565b60005b828110156200050357848901518255600182019150602085019450602081019050620004dc565b868310156200052357848901516200051f601f89168262000413565b8355505b6001600288020188555050505b505050505050565b6124b180620005486000396000f3fe6080604052600436106101355760003560e01c806340f6ac31116100ab5780638da5cb5b1161006f5780638da5cb5b146103e357806395d89b411461040e578063a457c2d714610439578063a9059cbb14610476578063dd62ed3e146104b3578063f2fde38b146104f057610135565b806340f6ac31146103225780635c975abb1461034d57806370a0823114610378578063715018a6146103b55780638456cb59146103cc57610135565b8063307cf63f116100fd578063307cf63f14610233578063313ce5671461024f57806332cb6b0c1461027a57806339509351146102a55780633f4ba83a146102e257806340c10f19146102f957610135565b806306fdde031461013a578063095ea7b3146101655780630fae7eb6146101a257806318160ddd146101cb57806323b872dd146101f6575b600080fd5b34801561014657600080fd5b5061014f610519565b60405161015c91906116a3565b60405180910390f35b34801561017157600080fd5b5061018c60048036038101906101879190611763565b6105ab565b60405161019991906117be565b60405180910390f35b3480156101ae57600080fd5b506101c960048036038101906101c49190611815565b6105ce565b005b3480156101d757600080fd5b506101e0610644565b6040516101ed9190611851565b60405180910390f35b34801561020257600080fd5b5061021d6004803603810190610218919061186c565b61064e565b60405161022a91906117be565b60405180910390f35b61024d60048036038101906102489190611924565b61067d565b005b34801561025b57600080fd5b50610264610795565b60405161027191906119a0565b60405180910390f35b34801561028657600080fd5b5061028f61079a565b60405161029c9190611851565b60405180910390f35b3480156102b157600080fd5b506102cc60048036038101906102c79190611763565b6107a5565b6040516102d991906117be565b60405180910390f35b3480156102ee57600080fd5b506102f76107dc565b005b34801561030557600080fd5b50610320600480360381019061031b9190611763565b6107ee565b005b34801561032e57600080fd5b5061033761085f565b60405161034491906119ca565b60405180910390f35b34801561035957600080fd5b50610362610879565b60405161036f91906117be565b60405180910390f35b34801561038457600080fd5b5061039f600480360381019061039a91906119e5565b610890565b6040516103ac9190611851565b60405180910390f35b3480156103c157600080fd5b506103ca6108d8565b005b3480156103d857600080fd5b506103e16108ec565b005b3480156103ef57600080fd5b506103f86108fe565b6040516104059190611a21565b60405180910390f35b34801561041a57600080fd5b50610423610928565b60405161043091906116a3565b60405180910390f35b34801561044557600080fd5b50610460600480360381019061045b9190611763565b6109ba565b60405161046d91906117be565b60405180910390f35b34801561048257600080fd5b5061049d60048036038101906104989190611763565b610a31565b6040516104aa91906117be565b60405180910390f35b3480156104bf57600080fd5b506104da60048036038101906104d59190611a3c565b610a54565b6040516104e79190611851565b60405180910390f35b3480156104fc57600080fd5b50610517600480360381019061051291906119e5565b610adb565b005b60606003805461052890611aab565b80601f016020809104026020016040519081016040528092919081815260200182805461055490611aab565b80156105a15780601f10610576576101008083540402835291602001916105a1565b820191906000526020600020905b81548152906001019060200180831161058457829003601f168201915b5050505050905090565b6000806105b6610b5e565b90506105c3818585610b66565b600191505092915050565b6105d6610d2f565b60008163ffffffff161015610620576040517f08c379a000000000000000000000000000000000000000000000000000000000815260040161061790611b28565b60405180910390fd5b80600560156101000a81548163ffffffff021916908363ffffffff16021790555050565b6000600254905090565b600080610659610b5e565b9050610666858285610dad565b610671858585610e39565b60019150509392505050565b600560159054906101000a900463ffffffff1663ffffffff163410156106d8576040517f08c379a00000000000000000000000000000000000000000000000000000000081526004016106cf90611bba565b60405180910390fd5b6106e96106e3610b5e565b846110af565b6106f16108fe565b73ffffffffffffffffffffffffffffffffffffffff166108fc349081150290604051600060405180830381858888f19350505050158015610736573d6000803e3d6000fd5b5061073f610b5e565b73ffffffffffffffffffffffffffffffffffffffff167fe5aadd65e4d4a654aee8b04b44be1fa1a26deb44951ba912fc6cffd439c2730b83838660405161078893929190611c16565b60405180910390a2505050565b600090565b661ff973cafa800081565b6000806107b0610b5e565b90506107d18185856107c28589610a54565b6107cc9190611c77565b610b66565b600191505092915050565b6107e4610d2f565b6107ec61127c565b565b6107f6610d2f565b661ff973cafa800081610807610644565b6108119190611c77565b10610851576040517f08c379a000000000000000000000000000000000000000000000000000000000815260040161084890611d1d565b60405180910390fd5b61085b82826112df565b5050565b6000600560159054906101000a900463ffffffff16905090565b6000600560009054906101000a900460ff16905090565b60008060008373ffffffffffffffffffffffffffffffffffffffff1673ffffffffffffffffffffffffffffffffffffffff168152602001908152602001600020549050919050565b6108e0610d2f565b6108ea6000611435565b565b6108f4610d2f565b6108fc6114fb565b565b6000600560019054906101000a900473ffffffffffffffffffffffffffffffffffffffff16905090565b60606004805461093790611aab565b80601f016020809104026020016040519081016040528092919081815260200182805461096390611aab565b80156109b05780601f10610985576101008083540402835291602001916109b0565b820191906000526020600020905b81548152906001019060200180831161099357829003601f168201915b5050505050905090565b6000806109c5610b5e565b905060006109d38286610a54565b905083811015610a18576040517f08c379a0000000000000000000000000000000000000000000000000000000008152600401610a0f90611daf565b60405180910390fd5b610a258286868403610b66565b60019250505092915050565b600080610a3c610b5e565b9050610a49818585610e39565b600191505092915050565b6000600160008473ffffffffffffffffffffffffffffffffffffffff1673ffffffffffffffffffffffffffffffffffffffff16815260200190815260200160002060008373ffffffffffffffffffffffffffffffffffffffff1673ffffffffffffffffffffffffffffffffffffffff16815260200190815260200160002054905092915050565b610ae3610d2f565b600073ffffffffffffffffffffffffffffffffffffffff168173ffffffffffffffffffffffffffffffffffffffff1603610b52576040517f08c379a0000000000000000000000000000000000000000000000000000000008152600401610b4990611e41565b60405180910390fd5b610b5b81611435565b50565b600033905090565b600073ffffffffffffffffffffffffffffffffffffffff168373ffffffffffffffffffffffffffffffffffffffff1603610bd5576040517f08c379a0000000000000000000000000000000000000000000000000000000008152600401610bcc90611ed3565b60405180910390fd5b600073ffffffffffffffffffffffffffffffffffffffff168273ffffffffffffffffffffffffffffffffffffffff1603610c44576040517f08c379a0000000000000000000000000000000000000000000000000000000008152600401610c3b90611f65565b60405180910390fd5b80600160008573ffffffffffffffffffffffffffffffffffffffff1673ffffffffffffffffffffffffffffffffffffffff16815260200190815260200160002060008473ffffffffffffffffffffffffffffffffffffffff1673ffffffffffffffffffffffffffffffffffffffff168152602001908152602001600020819055508173ffffffffffffffffffffffffffffffffffffffff168373ffffffffffffffffffffffffffffffffffffffff167f8c5be1e5ebec7d5bd14f71427d1e84f3dd0314c0f7b2291e5b200ac8c7c3b92583604051610d229190611851565b60405180910390a3505050565b610d37610b5e565b73ffffffffffffffffffffffffffffffffffffffff16610d556108fe565b73ffffffffffffffffffffffffffffffffffffffff1614610dab576040517f08c379a0000000000000000000000000000000000000000000000000000000008152600401610da290611fd1565b60405180910390fd5b565b6000610db98484610a54565b90507fffffffffffffffffffffffffffffffffffffffffffffffffffffffffffffffff8114610e335781811015610e25576040517f08c379a0000000000000000000000000000000000000000000000000000000008152600401610e1c9061203d565b60405180910390fd5b610e328484848403610b66565b5b50505050565b600073ffffffffffffffffffffffffffffffffffffffff168373ffffffffffffffffffffffffffffffffffffffff1603610ea8576040517f08c379a0000000000000000000000000000000000000000000000000000000008152600401610e9f906120cf565b60405180910390fd5b600073ffffffffffffffffffffffffffffffffffffffff168273ffffffffffffffffffffffffffffffffffffffff1603610f17576040517f08c379a0000000000000000000000000000000000000000000000000000000008152600401610f0e90612161565b60405180910390fd5b610f2283838361155e565b60008060008573ffffffffffffffffffffffffffffffffffffffff1673ffffffffffffffffffffffffffffffffffffffff16815260200190815260200160002054905081811015610fa8576040517f08c379a0000000000000000000000000000000000000000000000000000000008152600401610f9f906121f3565b60405180910390fd5b8181036000808673ffffffffffffffffffffffffffffffffffffffff1673ffffffffffffffffffffffffffffffffffffffff16815260200190815260200160002081905550816000808573ffffffffffffffffffffffffffffffffffffffff1673ffffffffffffffffffffffffffffffffffffffff168152602001908152602001600020600082825401925050819055508273ffffffffffffffffffffffffffffffffffffffff168473ffffffffffffffffffffffffffffffffffffffff167fddf252ad1be2c89b69c2b068fc378daa952ba7f163c4a11628f55a4df523b3ef846040516110969190611851565b60405180910390a36110a9848484611576565b50505050565b600073ffffffffffffffffffffffffffffffffffffffff168273ffffffffffffffffffffffffffffffffffffffff160361111e576040517f08c379a000000000000000000000000000000000000000000000000000000000815260040161111590612285565b60405180910390fd5b61112a8260008361155e565b60008060008473ffffffffffffffffffffffffffffffffffffffff1673ffffffffffffffffffffffffffffffffffffffff168152602001908152602001600020549050818110156111b0576040517f08c379a00000000000000000000000000000000000000000000000000000000081526004016111a790612317565b60405180910390fd5b8181036000808573ffffffffffffffffffffffffffffffffffffffff1673ffffffffffffffffffffffffffffffffffffffff1681526020019081526020016000208190555081600260008282540392505081905550600073ffffffffffffffffffffffffffffffffffffffff168373ffffffffffffffffffffffffffffffffffffffff167fddf252ad1be2c89b69c2b068fc378daa952ba7f163c4a11628f55a4df523b3ef846040516112639190611851565b60405180910390a361127783600084611576565b505050565b61128461157b565b6000600560006101000a81548160ff0219169083151502179055507f5db9ee0a495bf2e6ff9c91a7834c1ba4fdd244a5e8aa4e537bd38aeae4b073aa6112c8610b5e565b6040516112d59190611a21565b60405180910390a1565b600073ffffffffffffffffffffffffffffffffffffffff168273ffffffffffffffffffffffffffffffffffffffff160361134e576040517f08c379a000000000000000000000000000000000000000000000000000000000815260040161134590612383565b60405180910390fd5b61135a6000838361155e565b806002600082825461136c9190611c77565b92505081905550806000808473ffffffffffffffffffffffffffffffffffffffff1673ffffffffffffffffffffffffffffffffffffffff168152602001908152602001600020600082825401925050819055508173ffffffffffffffffffffffffffffffffffffffff16600073ffffffffffffffffffffffffffffffffffffffff167fddf252ad1be2c89b69c2b068fc378daa952ba7f163c4a11628f55a4df523b3ef8360405161141d9190611851565b60405180910390a361143160008383611576565b5050565b6000600560019054906101000a900473ffffffffffffffffffffffffffffffffffffffff16905081600560016101000a81548173ffffffffffffffffffffffffffffffffffffffff021916908373ffffffffffffffffffffffffffffffffffffffff1602179055508173ffffffffffffffffffffffffffffffffffffffff168173ffffffffffffffffffffffffffffffffffffffff167f8be0079c531659141344cd1fd0a4f28419497f9722a3daafe3b4186f6b6457e060405160405180910390a35050565b6115036115c4565b6001600560006101000a81548160ff0219169083151502179055507f62e78cea01bee320cd4e420270b5ea74000d11b0c9f74754ebdbfc544b05a258611547610b5e565b6040516115549190611a21565b60405180910390a1565b6115666115c4565b61157183838361160e565b505050565b505050565b611583610879565b6115c2576040517f08c379a00000000000000000000000000000000000000000000000000000000081526004016115b9906123ef565b60405180910390fd5b565b6115cc610879565b1561160c576040517f08c379a00000000000000000000000000000000000000000000000000000000081526004016116039061245b565b60405180910390fd5b565b505050565b600081519050919050565b600082825260208201905092915050565b60005b8381101561164d578082015181840152602081019050611632565b60008484015250505050565b6000601f19601f8301169050919050565b600061167582611613565b61167f818561161e565b935061168f81856020860161162f565b61169881611659565b840191505092915050565b600060208201905081810360008301526116bd818461166a565b905092915050565b600080fd5b600080fd5b600073ffffffffffffffffffffffffffffffffffffffff82169050919050565b60006116fa826116cf565b9050919050565b61170a816116ef565b811461171557600080fd5b50565b60008135905061172781611701565b92915050565b6000819050919050565b6117408161172d565b811461174b57600080fd5b50565b60008135905061175d81611737565b92915050565b6000806040838503121561177a576117796116c5565b5b600061178885828601611718565b92505060206117998582860161174e565b9150509250929050565b60008115159050919050565b6117b8816117a3565b82525050565b60006020820190506117d360008301846117af565b92915050565b600063ffffffff82169050919050565b6117f2816117d9565b81146117fd57600080fd5b50565b60008135905061180f816117e9565b92915050565b60006020828403121561182b5761182a6116c5565b5b600061183984828501611800565b91505092915050565b61184b8161172d565b82525050565b60006020820190506118666000830184611842565b92915050565b600080600060608486031215611885576118846116c5565b5b600061189386828701611718565b93505060206118a486828701611718565b92505060406118b58682870161174e565b9150509250925092565b600080fd5b600080fd5b600080fd5b60008083601f8401126118e4576118e36118bf565b5b8235905067ffffffffffffffff811115611901576119006118c4565b5b60208301915083600182028301111561191d5761191c6118c9565b5b9250929050565b60008060006040848603121561193d5761193c6116c5565b5b600061194b8682870161174e565b935050602084013567ffffffffffffffff81111561196c5761196b6116ca565b5b611978868287016118ce565b92509250509250925092565b600060ff82169050919050565b61199a81611984565b82525050565b60006020820190506119b56000830184611991565b92915050565b6119c4816117d9565b82525050565b60006020820190506119df60008301846119bb565b92915050565b6000602082840312156119fb576119fa6116c5565b5b6000611a0984828501611718565b91505092915050565b611a1b816116ef565b82525050565b6000602082019050611a366000830184611a12565b92915050565b60008060408385031215611a5357611a526116c5565b5b6000611a6185828601611718565b9250506020611a7285828601611718565b9150509250929050565b7f4e487b7100000000000000000000000000000000000000000000000000000000600052602260045260246000fd5b60006002820490506001821680611ac357607f821691505b602082108103611ad657611ad5611a7c565b5b50919050565b7f6275726e20666565732063616e6e6f74206265206e6567617469766500000000600082015250565b6000611b12601c8361161e565b9150611b1d82611adc565b602082019050919050565b60006020820190508181036000830152611b4181611b05565b9050919050565b7f7472616e73616374696f6e2076616c756520646f6573206e6f7420636f76657260008201527f20746865204d4c5820756e777261702066656573000000000000000000000000602082015250565b6000611ba460348361161e565b9150611baf82611b48565b604082019050919050565b60006020820190508181036000830152611bd381611b97565b9050919050565b82818337600083830152505050565b6000611bf5838561161e565b9350611c02838584611bda565b611c0b83611659565b840190509392505050565b60006040820190508181036000830152611c31818587611be9565b9050611c406020830184611842565b949350505050565b7f4e487b7100000000000000000000000000000000000000000000000000000000600052601160045260246000fd5b6000611c828261172d565b9150611c8d8361172d565b9250828201905080821115611ca557611ca4611c48565b5b92915050565b7f746f74616c20737570706c792063616e6e6f742062652067726561746572207460008201527f68616e2039653135000000000000000000000000000000000000000000000000602082015250565b6000611d0760288361161e565b9150611d1282611cab565b604082019050919050565b60006020820190508181036000830152611d3681611cfa565b9050919050565b7f45524332303a2064656372656173656420616c6c6f77616e63652062656c6f7760008201527f207a65726f000000000000000000000000000000000000000000000000000000602082015250565b6000611d9960258361161e565b9150611da482611d3d565b604082019050919050565b60006020820190508181036000830152611dc881611d8c565b9050919050565b7f4f776e61626c653a206e6577206f776e657220697320746865207a65726f206160008201527f6464726573730000000000000000000000000000000000000000000000000000602082015250565b6000611e2b60268361161e565b9150611e3682611dcf565b604082019050919050565b60006020820190508181036000830152611e5a81611e1e565b9050919050565b7f45524332303a20617070726f76652066726f6d20746865207a65726f2061646460008201527f7265737300000000000000000000000000000000000000000000000000000000602082015250565b6000611ebd60248361161e565b9150611ec882611e61565b604082019050919050565b60006020820190508181036000830152611eec81611eb0565b9050919050565b7f45524332303a20617070726f766520746f20746865207a65726f20616464726560008201527f7373000000000000000000000000000000000000000000000000000000000000602082015250565b6000611f4f60228361161e565b9150611f5a82611ef3565b604082019050919050565b60006020820190508181036000830152611f7e81611f42565b9050919050565b7f4f776e61626c653a2063616c6c6572206973206e6f7420746865206f776e6572600082015250565b6000611fbb60208361161e565b9150611fc682611f85565b602082019050919050565b60006020820190508181036000830152611fea81611fae565b9050919050565b7f45524332303a20696e73756666696369656e7420616c6c6f77616e6365000000600082015250565b6000612027601d8361161e565b915061203282611ff1565b602082019050919050565b600060208201905081810360008301526120568161201a565b9050919050565b7f45524332303a207472616e736665722066726f6d20746865207a65726f20616460008201527f6472657373000000000000000000000000000000000000000000000000000000602082015250565b60006120b960258361161e565b91506120c48261205d565b604082019050919050565b600060208201905081810360008301526120e8816120ac565b9050919050565b7f45524332303a207472616e7366657220746f20746865207a65726f206164647260008201527f6573730000000000000000000000000000000000000000000000000000000000602082015250565b600061214b60238361161e565b9150612156826120ef565b604082019050919050565b6000602082019050818103600083015261217a8161213e565b9050919050565b7f45524332303a207472616e7366657220616d6f756e742065786365656473206260008201527f616c616e63650000000000000000000000000000000000000000000000000000602082015250565b60006121dd60268361161e565b91506121e882612181565b604082019050919050565b6000602082019050818103600083015261220c816121d0565b9050919050565b7f45524332303a206275726e2066726f6d20746865207a65726f2061646472657360008201527f7300000000000000000000000000000000000000000000000000000000000000602082015250565b600061226f60218361161e565b915061227a82612213565b604082019050919050565b6000602082019050818103600083015261229e81612262565b9050919050565b7f45524332303a206275726e20616d6f756e7420657863656564732062616c616e60008201527f6365000000000000000000000000000000000000000000000000000000000000602082015250565b600061230160228361161e565b915061230c826122a5565b604082019050919050565b60006020820190508181036000830152612330816122f4565b9050919050565b7f45524332303a206d696e7420746f20746865207a65726f206164647265737300600082015250565b600061236d601f8361161e565b915061237882612337565b602082019050919050565b6000602082019050818103600083015261239c81612360565b9050919050565b7f5061757361626c653a206e6f7420706175736564000000000000000000000000600082015250565b60006123d960148361161e565b91506123e4826123a3565b602082019050919050565b60006020820190508181036000830152612408816123cc565b9050919050565b7f5061757361626c653a2070617573656400000000000000000000000000000000600082015250565b600061244560108361161e565b91506124508261240f565b602082019050919050565b6000602082019050818103600083015261247481612438565b905091905056fea264697066735822122024b656eb5433b87c083ba46abfef94e4368eedf10013f1a248f1163f23ee073064736f6c63430008110033",
  "immutableReferences": {},
  "source": "\n// SPDX-License-Identifier: MIT\npragma solidity ^0.8.9;\n\nimport \"@openzeppelin/contracts/token/ERC20/ERC20.sol\";\nimport \"@openzeppelin/contracts/security/Pausable.sol\";\nimport \"@openzeppelin/contracts/access/Ownable.sol\";\n\ninterface IMillixBridge {\n    /**\n     * @dev Emitted when `amount` tokens are moved from account (`from`) to millix network address (`to`)\n     */\n    event UnwrapMillix(address indexed from, string to, uint256 amount);\n\n    function unwrap(uint256 amount, string calldata to) external payable;\n}\n\n/// @custom:security-contact developer@millix.com\ncontract WrappedMillix is ERC20, Pausable, Ownable, IMillixBridge {\n    uint256 public constant MAX_SUPPLY = 9 * 10 ** 15;\n    uint32 private _burnFees = 662780;\n\n    constructor() ERC20(\"WrappedMillix\", \"WMLX\") {}\n\n    function decimals() public view virtual override returns (uint8) {\n        return 0;\n    }\n\n    function pause() public onlyOwner {\n        _pause();\n    }\n\n    function unpause() public onlyOwner {\n        _unpause();\n    }\n\n    function mint(address to, uint256 amount) public onlyOwner {\n        require(totalSupply() + amount < MAX_SUPPLY, \"total supply cannot be greater than 9e15\");\n        _mint(to, amount);\n    }\n\n    /**\n     * @dev Set current burn fees.\n     */\n    function setBurnFees(uint32 fees) public onlyOwner {\n        require(fees >= 0, \"burn fees cannot be negative\");\n        _burnFees = fees;\n    }\n\n    /**\n     * @dev Returns current burn fees.\n     */\n    function burnFees() public view virtual returns (uint32) {\n        return _burnFees;\n    }\n\n    function _beforeTokenTransfer(address from, address to, uint256 amount) internal whenNotPaused override {\n        super._beforeTokenTransfer(from, to, amount);\n    }\n\n    function unwrap(uint256 amount, string calldata to) public payable {\n        require(msg.value >= _burnFees, \"transaction value does not cover the MLX unwrap fees\");\n        _burn(_msgSender(), amount);\n        payable(owner()).transfer(msg.value);\n        emit UnwrapMillix(_msgSender(), to, amount);\n    }\n}",
  "sourcePath": "/Users/eriksson/devtools/millix-bridge-contract/contracts/WrappedMillix.sol",
  "compiler": {
    "name": "solc",
    "version": "0.8.17+commit.8df45f5f.Emscripten.clang"
  },
  "schemaVersion": "3.4.10",
  "updatedAt": "2022-11-22T16:11:15.169Z",
  "networkType": "ethereum",
  "devdoc": {
    "custom:security-contact": "developer@millix.com",
    "kind": "dev",
    "methods": {
      "allowance(address,address)": {
        "details": "See {IERC20-allowance}."
      },
      "approve(address,uint256)": {
        "details": "See {IERC20-approve}. NOTE: If `amount` is the maximum `uint256`, the allowance is not updated on `transferFrom`. This is semantically equivalent to an infinite approval. Requirements: - `spender` cannot be the zero address."
      },
      "balanceOf(address)": {
        "details": "See {IERC20-balanceOf}."
      },
      "burnFees()": {
        "details": "Returns current burn fees."
      },
      "decimals()": {
        "details": "Returns the number of decimals used to get its user representation. For example, if `decimals` equals `2`, a balance of `505` tokens should be displayed to a user as `5.05` (`505 / 10 ** 2`). Tokens usually opt for a value of 18, imitating the relationship between Ether and Wei. This is the value {ERC20} uses, unless this function is overridden; NOTE: This information is only used for _display_ purposes: it in no way affects any of the arithmetic of the contract, including {IERC20-balanceOf} and {IERC20-transfer}."
      },
      "decreaseAllowance(address,uint256)": {
        "details": "Atomically decreases the allowance granted to `spender` by the caller. This is an alternative to {approve} that can be used as a mitigation for problems described in {IERC20-approve}. Emits an {Approval} event indicating the updated allowance. Requirements: - `spender` cannot be the zero address. - `spender` must have allowance for the caller of at least `subtractedValue`."
      },
      "increaseAllowance(address,uint256)": {
        "details": "Atomically increases the allowance granted to `spender` by the caller. This is an alternative to {approve} that can be used as a mitigation for problems described in {IERC20-approve}. Emits an {Approval} event indicating the updated allowance. Requirements: - `spender` cannot be the zero address."
      },
      "name()": {
        "details": "Returns the name of the token."
      },
      "owner()": {
        "details": "Returns the address of the current owner."
      },
      "paused()": {
        "details": "Returns true if the contract is paused, and false otherwise."
      },
      "renounceOwnership()": {
        "details": "Leaves the contract without owner. It will not be possible to call `onlyOwner` functions anymore. Can only be called by the current owner. NOTE: Renouncing ownership will leave the contract without an owner, thereby removing any functionality that is only available to the owner."
      },
      "setBurnFees(uint32)": {
        "details": "Set current burn fees."
      },
      "symbol()": {
        "details": "Returns the symbol of the token, usually a shorter version of the name."
      },
      "totalSupply()": {
        "details": "See {IERC20-totalSupply}."
      },
      "transfer(address,uint256)": {
        "details": "See {IERC20-transfer}. Requirements: - `to` cannot be the zero address. - the caller must have a balance of at least `amount`."
      },
      "transferFrom(address,address,uint256)": {
        "details": "See {IERC20-transferFrom}. Emits an {Approval} event indicating the updated allowance. This is not required by the EIP. See the note at the beginning of {ERC20}. NOTE: Does not update the allowance if the current allowance is the maximum `uint256`. Requirements: - `from` and `to` cannot be the zero address. - `from` must have a balance of at least `amount`. - the caller must have allowance for ``from``'s tokens of at least `amount`."
      },
      "transferOwnership(address)": {
        "details": "Transfers ownership of the contract to a new account (`newOwner`). Can only be called by the current owner."
      }
    },
    "version": 1
  },
  "userdoc": {
    "kind": "user",
    "methods": {},
    "version": 1
  }
}